{
  "address": "0x4D731cdd83C4758e4Df535550F22C1119D579Afd",
  "abi": [
    {
      "inputs": [
        {
          "internalType": "address",
          "name": "_endpoint",
          "type": "address"
        },
        {
          "internalType": "uint256",
          "name": "_remoteChainId",
          "type": "uint256"
        },
        {
          "internalType": "address",
          "name": "_weth",
          "type": "address"
        }
      ],
      "stateMutability": "nonpayable",
      "type": "constructor"
    },
    {
      "anonymous": false,
      "inputs": [
        {
          "indexed": false,
          "internalType": "uint256",
          "name": "_srcChainId",
          "type": "uint256"
        },
        {
          "indexed": false,
          "internalType": "bytes",
          "name": "_srcAddress",
          "type": "bytes"
        },
        {
          "indexed": false,
          "internalType": "uint64",
          "name": "_nonce",
          "type": "uint64"
        },
        {
          "indexed": false,
          "internalType": "bytes",
          "name": "_payload",
          "type": "bytes"
        },
        {
          "indexed": false,
          "internalType": "bytes",
          "name": "_reason",
          "type": "bytes"
        }
      ],
      "name": "MessageFailed",
      "type": "event"
    },
    {
      "anonymous": false,
      "inputs": [
        {
          "indexed": true,
          "internalType": "address",
          "name": "previousOwner",
          "type": "address"
        },
        {
          "indexed": true,
          "internalType": "address",
          "name": "newOwner",
          "type": "address"
        }
      ],
      "name": "OwnershipTransferred",
      "type": "event"
    },
    {
      "anonymous": false,
      "inputs": [
        {
          "indexed": false,
          "internalType": "address",
          "name": "token",
          "type": "address"
        },
        {
          "indexed": false,
          "internalType": "address",
          "name": "to",
          "type": "address"
        },
        {
          "indexed": false,
          "internalType": "uint256",
          "name": "amount",
          "type": "uint256"
        }
      ],
      "name": "ReceiveToken",
      "type": "event"
    },
    {
      "anonymous": false,
      "inputs": [
        {
          "indexed": false,
          "internalType": "address",
          "name": "token",
          "type": "address"
        }
      ],
      "name": "RegisterToken",
      "type": "event"
    },
    {
      "anonymous": false,
      "inputs": [
        {
          "indexed": false,
          "internalType": "uint256",
          "name": "_srcChainId",
          "type": "uint256"
        },
        {
          "indexed": false,
          "internalType": "bytes",
          "name": "_srcAddress",
          "type": "bytes"
        },
        {
          "indexed": false,
          "internalType": "uint64",
          "name": "_nonce",
          "type": "uint64"
        },
        {
          "indexed": false,
          "internalType": "bytes32",
          "name": "_payloadHash",
          "type": "bytes32"
        }
      ],
      "name": "RetryMessageSuccess",
      "type": "event"
    },
    {
      "anonymous": false,
      "inputs": [
        {
          "indexed": false,
          "internalType": "address",
          "name": "token",
          "type": "address"
        },
        {
          "indexed": false,
          "internalType": "address",
          "name": "from",
          "type": "address"
        },
        {
          "indexed": false,
          "internalType": "address",
          "name": "to",
          "type": "address"
        },
        {
          "indexed": false,
          "internalType": "uint256",
          "name": "amount",
          "type": "uint256"
        }
      ],
      "name": "SendToken",
      "type": "event"
    },
    {
      "anonymous": false,
      "inputs": [
        {
          "indexed": false,
          "internalType": "uint256",
          "name": "_dstChainId",
          "type": "uint256"
        },
        {
          "indexed": false,
          "internalType": "uint16",
          "name": "_type",
          "type": "uint16"
        },
        {
          "indexed": false,
          "internalType": "uint256",
          "name": "_minDstGas",
          "type": "uint256"
        }
      ],
      "name": "SetMinDstGas",
      "type": "event"
    },
    {
      "anonymous": false,
      "inputs": [
        {
          "indexed": false,
          "internalType": "address",
          "name": "precrime",
          "type": "address"
        }
      ],
      "name": "SetPrecrime",
      "type": "event"
    },
    {
      "anonymous": false,
      "inputs": [
        {
          "indexed": false,
          "internalType": "uint256",
          "name": "remoteChainId",
          "type": "uint256"
        }
      ],
      "name": "SetRemoteChainId",
      "type": "event"
    },
    {
      "anonymous": false,
      "inputs": [
        {
          "indexed": false,
          "internalType": "uint256",
          "name": "_remoteChainId",
          "type": "uint256"
        },
        {
          "indexed": false,
          "internalType": "bytes",
          "name": "_path",
          "type": "bytes"
        }
      ],
      "name": "SetTrustedRemote",
      "type": "event"
    },
    {
      "anonymous": false,
      "inputs": [
        {
          "indexed": false,
          "internalType": "uint256",
          "name": "_remoteChainId",
          "type": "uint256"
        },
        {
          "indexed": false,
          "internalType": "bytes",
          "name": "_remoteAddress",
          "type": "bytes"
        }
      ],
      "name": "SetTrustedRemoteAddress",
      "type": "event"
    },
    {
      "anonymous": false,
      "inputs": [
        {
          "indexed": false,
          "internalType": "bool",
          "name": "useCustomAdapterParams",
          "type": "bool"
        }
      ],
      "name": "SetUseCustomAdapterParams",
      "type": "event"
    },
    {
      "anonymous": false,
      "inputs": [
        {
          "indexed": true,
          "internalType": "address",
          "name": "token",
          "type": "address"
        },
        {
          "indexed": false,
          "internalType": "address",
          "name": "to",
          "type": "address"
        },
        {
          "indexed": false,
          "internalType": "uint256",
          "name": "amount",
          "type": "uint256"
        }
      ],
      "name": "WithdrawFee",
      "type": "event"
    },
    {
      "inputs": [
        {
          "internalType": "address",
          "name": "",
          "type": "address"
        }
      ],
      "name": "LDtoSDConversionRate",
      "outputs": [
        {
          "internalType": "uint256",
          "name": "",
          "type": "uint256"
        }
      ],
      "stateMutability": "view",
      "type": "function"
    },
    {
      "inputs": [],
      "name": "PT_MINT",
      "outputs": [
        {
          "internalType": "uint8",
          "name": "",
          "type": "uint8"
        }
      ],
      "stateMutability": "view",
      "type": "function"
    },
    {
      "inputs": [],
      "name": "PT_UNLOCK",
      "outputs": [
        {
          "internalType": "uint8",
          "name": "",
          "type": "uint8"
        }
      ],
      "stateMutability": "view",
      "type": "function"
    },
    {
      "inputs": [
        {
          "internalType": "address",
          "name": "token",
          "type": "address"
        }
      ],
      "name": "accruedFeeLD",
      "outputs": [
        {
          "internalType": "uint256",
          "name": "",
          "type": "uint256"
        }
      ],
      "stateMutability": "view",
      "type": "function"
    },
    {
      "inputs": [
        {
          "internalType": "address",
          "name": "token",
          "type": "address"
        },
        {
          "internalType": "uint256",
          "name": "amountLD",
          "type": "uint256"
        },
        {
          "internalType": "address",
          "name": "to",
          "type": "address"
        },
        {
          "components": [
            {
              "internalType": "address payable",
              "name": "refundAddress",
              "type": "address"
            },
            {
              "internalType": "address",
              "name": "zroPaymentAddress",
              "type": "address"
            }
          ],
          "internalType": "struct LzLib.CallParams",
          "name": "callParams",
          "type": "tuple"
        },
        {
          "internalType": "bytes",
          "name": "adapterParams",
          "type": "bytes"
        }
      ],
      "name": "bridge",
      "outputs": [],
      "stateMutability": "payable",
      "type": "function"
    },
    {
      "inputs": [
        {
          "internalType": "uint256",
          "name": "amountLD",
          "type": "uint256"
        },
        {
          "internalType": "address",
          "name": "to",
          "type": "address"
        },
        {
          "components": [
            {
              "internalType": "address payable",
              "name": "refundAddress",
              "type": "address"
            },
            {
              "internalType": "address",
              "name": "zroPaymentAddress",
              "type": "address"
            }
          ],
          "internalType": "struct LzLib.CallParams",
          "name": "callParams",
          "type": "tuple"
        },
        {
          "internalType": "bytes",
          "name": "adapterParams",
          "type": "bytes"
        }
      ],
      "name": "bridgeNative",
      "outputs": [],
      "stateMutability": "payable",
      "type": "function"
    },
    {
      "inputs": [
        {
          "internalType": "bool",
          "name": "useZro",
          "type": "bool"
        },
        {
          "internalType": "bytes",
          "name": "adapterParams",
          "type": "bytes"
        }
      ],
      "name": "estimateBridgeFee",
      "outputs": [
        {
          "internalType": "uint256",
          "name": "nativeFee",
          "type": "uint256"
        },
        {
          "internalType": "uint256",
          "name": "zroFee",
          "type": "uint256"
        }
      ],
      "stateMutability": "view",
      "type": "function"
    },
    {
      "inputs": [
        {
          "internalType": "uint256",
          "name": "",
          "type": "uint256"
        },
        {
          "internalType": "bytes",
          "name": "",
          "type": "bytes"
        },
        {
          "internalType": "uint64",
          "name": "",
          "type": "uint64"
        }
      ],
      "name": "failedMessages",
      "outputs": [
        {
          "internalType": "bytes32",
          "name": "",
          "type": "bytes32"
        }
      ],
      "stateMutability": "view",
      "type": "function"
    },
    {
      "inputs": [
        {
          "internalType": "uint256",
          "name": "_srcChainId",
          "type": "uint256"
        },
        {
          "internalType": "bytes",
          "name": "_srcAddress",
          "type": "bytes"
        }
      ],
      "name": "forceResumeReceive",
      "outputs": [],
      "stateMutability": "nonpayable",
      "type": "function"
    },
    {
      "inputs": [
        {
          "internalType": "uint16",
          "name": "_version",
          "type": "uint16"
        },
        {
          "internalType": "uint256",
          "name": "_chainId",
          "type": "uint256"
        },
        {
          "internalType": "address",
          "name": "",
          "type": "address"
        },
        {
          "internalType": "uint256",
          "name": "_configType",
          "type": "uint256"
        }
      ],
      "name": "getConfig",
      "outputs": [
        {
          "internalType": "bytes",
          "name": "",
          "type": "bytes"
        }
      ],
      "stateMutability": "view",
      "type": "function"
    },
    {
      "inputs": [
        {
          "internalType": "uint256",
          "name": "_remoteChainId",
          "type": "uint256"
        }
      ],
      "name": "getTrustedRemoteAddress",
      "outputs": [
        {
          "internalType": "bytes",
          "name": "",
          "type": "bytes"
        }
      ],
      "stateMutability": "view",
      "type": "function"
    },
    {
      "inputs": [
        {
          "internalType": "uint256",
          "name": "_srcChainId",
          "type": "uint256"
        },
        {
          "internalType": "bytes",
          "name": "_srcAddress",
          "type": "bytes"
        }
      ],
      "name": "isTrustedRemote",
      "outputs": [
        {
          "internalType": "bool",
          "name": "",
          "type": "bool"
        }
      ],
      "stateMutability": "view",
      "type": "function"
    },
    {
      "inputs": [],
      "name": "lzEndpoint",
      "outputs": [
        {
          "internalType": "contract ILayerZeroEndpoint",
          "name": "",
          "type": "address"
        }
      ],
      "stateMutability": "view",
      "type": "function"
    },
    {
      "inputs": [
        {
          "internalType": "uint256",
          "name": "_srcChainId",
          "type": "uint256"
        },
        {
          "internalType": "bytes",
          "name": "_srcAddress",
          "type": "bytes"
        },
        {
          "internalType": "uint64",
          "name": "_nonce",
          "type": "uint64"
        },
        {
          "internalType": "bytes",
          "name": "_payload",
          "type": "bytes"
        }
      ],
      "name": "lzReceive",
      "outputs": [],
      "stateMutability": "nonpayable",
      "type": "function"
    },
    {
      "inputs": [
        {
          "internalType": "uint256",
          "name": "",
          "type": "uint256"
        },
        {
          "internalType": "uint16",
          "name": "",
          "type": "uint16"
        }
      ],
      "name": "minDstGasLookup",
      "outputs": [
        {
          "internalType": "uint256",
          "name": "",
          "type": "uint256"
        }
      ],
      "stateMutability": "view",
      "type": "function"
    },
    {
      "inputs": [
        {
          "internalType": "uint256",
          "name": "_srcChainId",
          "type": "uint256"
        },
        {
          "internalType": "bytes",
          "name": "_srcAddress",
          "type": "bytes"
        },
        {
          "internalType": "uint64",
          "name": "_nonce",
          "type": "uint64"
        },
        {
          "internalType": "bytes",
          "name": "_payload",
          "type": "bytes"
        }
      ],
      "name": "nonblockingLzReceive",
      "outputs": [],
      "stateMutability": "nonpayable",
      "type": "function"
    },
    {
      "inputs": [],
      "name": "owner",
      "outputs": [
        {
          "internalType": "address",
          "name": "",
          "type": "address"
        }
      ],
      "stateMutability": "view",
      "type": "function"
    },
    {
      "inputs": [],
      "name": "precrime",
      "outputs": [
        {
          "internalType": "address",
          "name": "",
          "type": "address"
        }
      ],
      "stateMutability": "view",
      "type": "function"
    },
    {
      "inputs": [
        {
          "internalType": "address",
          "name": "token",
          "type": "address"
        },
        {
          "internalType": "uint8",
          "name": "sharedDecimals",
          "type": "uint8"
        }
      ],
      "name": "registerToken",
      "outputs": [],
      "stateMutability": "nonpayable",
      "type": "function"
    },
    {
      "inputs": [],
      "name": "remoteChainId",
      "outputs": [
        {
          "internalType": "uint256",
          "name": "",
          "type": "uint256"
        }
      ],
      "stateMutability": "view",
      "type": "function"
    },
    {
      "inputs": [],
      "name": "renounceOwnership",
      "outputs": [],
      "stateMutability": "nonpayable",
      "type": "function"
    },
    {
      "inputs": [
        {
          "internalType": "uint256",
          "name": "_srcChainId",
          "type": "uint256"
        },
        {
          "internalType": "bytes",
          "name": "_srcAddress",
          "type": "bytes"
        },
        {
          "internalType": "uint64",
          "name": "_nonce",
          "type": "uint64"
        },
        {
          "internalType": "bytes",
          "name": "_payload",
          "type": "bytes"
        }
      ],
      "name": "retryMessage",
      "outputs": [],
      "stateMutability": "payable",
      "type": "function"
    },
    {
      "inputs": [
        {
          "internalType": "uint16",
          "name": "_version",
          "type": "uint16"
        },
        {
          "internalType": "uint256",
          "name": "_chainId",
          "type": "uint256"
        },
        {
          "internalType": "uint256",
          "name": "_configType",
          "type": "uint256"
        },
        {
          "internalType": "bytes",
          "name": "_config",
          "type": "bytes"
        }
      ],
      "name": "setConfig",
      "outputs": [],
      "stateMutability": "nonpayable",
      "type": "function"
    },
    {
      "inputs": [
        {
          "internalType": "uint256",
          "name": "_dstChainId",
          "type": "uint256"
        },
        {
          "internalType": "uint16",
          "name": "_packetType",
          "type": "uint16"
        },
        {
          "internalType": "uint256",
          "name": "_minGas",
          "type": "uint256"
        }
      ],
      "name": "setMinDstGas",
      "outputs": [],
      "stateMutability": "nonpayable",
      "type": "function"
    },
    {
      "inputs": [
        {
          "internalType": "address",
          "name": "_precrime",
          "type": "address"
        }
      ],
      "name": "setPrecrime",
      "outputs": [],
      "stateMutability": "nonpayable",
      "type": "function"
    },
    {
      "inputs": [
        {
          "internalType": "uint16",
          "name": "_version",
          "type": "uint16"
        }
      ],
      "name": "setReceiveVersion",
      "outputs": [],
      "stateMutability": "nonpayable",
      "type": "function"
    },
    {
      "inputs": [
        {
          "internalType": "uint256",
          "name": "_remoteChainId",
          "type": "uint256"
        }
      ],
      "name": "setRemoteChainId",
      "outputs": [],
      "stateMutability": "nonpayable",
      "type": "function"
    },
    {
      "inputs": [
        {
          "internalType": "uint16",
          "name": "_version",
          "type": "uint16"
        }
      ],
      "name": "setSendVersion",
      "outputs": [],
      "stateMutability": "nonpayable",
      "type": "function"
    },
    {
      "inputs": [
        {
          "internalType": "uint256",
          "name": "_srcChainId",
          "type": "uint256"
        },
        {
          "internalType": "bytes",
          "name": "_path",
          "type": "bytes"
        }
      ],
      "name": "setTrustedRemote",
      "outputs": [],
      "stateMutability": "nonpayable",
      "type": "function"
    },
    {
      "inputs": [
        {
          "internalType": "uint256",
          "name": "_remoteChainId",
          "type": "uint256"
        },
        {
          "internalType": "bytes",
          "name": "_remoteAddress",
          "type": "bytes"
        }
      ],
      "name": "setTrustedRemoteAddress",
      "outputs": [],
      "stateMutability": "nonpayable",
      "type": "function"
    },
    {
      "inputs": [
        {
          "internalType": "bool",
          "name": "_useCustomAdapterParams",
          "type": "bool"
        }
      ],
      "name": "setUseCustomAdapterParams",
      "outputs": [],
      "stateMutability": "nonpayable",
      "type": "function"
    },
    {
      "inputs": [
        {
          "internalType": "address",
          "name": "",
          "type": "address"
        }
      ],
      "name": "supportedTokens",
      "outputs": [
        {
          "internalType": "bool",
          "name": "",
          "type": "bool"
        }
      ],
      "stateMutability": "view",
      "type": "function"
    },
    {
      "inputs": [
        {
          "internalType": "address",
          "name": "",
          "type": "address"
        }
      ],
      "name": "totalValueLockedSD",
      "outputs": [
        {
          "internalType": "uint256",
          "name": "",
          "type": "uint256"
        }
      ],
      "stateMutability": "view",
      "type": "function"
    },
    {
      "inputs": [
        {
          "internalType": "address",
          "name": "newOwner",
          "type": "address"
        }
      ],
      "name": "transferOwnership",
      "outputs": [],
      "stateMutability": "nonpayable",
      "type": "function"
    },
    {
      "inputs": [
        {
          "internalType": "uint256",
          "name": "",
          "type": "uint256"
        }
      ],
      "name": "trustedRemoteLookup",
      "outputs": [
        {
          "internalType": "bytes",
          "name": "",
          "type": "bytes"
        }
      ],
      "stateMutability": "view",
      "type": "function"
    },
    {
      "inputs": [],
      "name": "useCustomAdapterParams",
      "outputs": [
        {
          "internalType": "bool",
          "name": "",
          "type": "bool"
        }
      ],
      "stateMutability": "view",
      "type": "function"
    },
    {
      "inputs": [],
      "name": "weth",
      "outputs": [
        {
          "internalType": "address",
          "name": "",
          "type": "address"
        }
      ],
      "stateMutability": "view",
      "type": "function"
    },
    {
      "inputs": [
        {
          "internalType": "address",
          "name": "token",
          "type": "address"
        },
        {
          "internalType": "address",
          "name": "to",
          "type": "address"
        },
        {
          "internalType": "uint256",
          "name": "amountLD",
          "type": "uint256"
        }
      ],
      "name": "withdrawFee",
      "outputs": [],
      "stateMutability": "nonpayable",
      "type": "function"
    },
    {
      "stateMutability": "payable",
      "type": "receive"
    }
  ],
  "transactionHash": "0x4f3f49cd1f66be1231ba73dee1f5e3d73a99897e624807fcaf2db695baa2b2bd",
  "args": [
    "0x6Fcb97553D41516Cb228ac03FdC8B9a0a9df04A1",
    10153,
    "0xae13d989daC2f0dEbFf460aC112a837C89BAa7cd"
  ],
  "numDeployments": 1,
  "solcInputHash": "3667d1babc96d562acf2bea9f0fdbf29",
  "bytecode": "0x60c06040523480156200001157600080fd5b5060405162003d0b38038062003d0b833981016040819052620000349162000144565b8280806200004233620000d7565b6001600160a01b03908116608052600160055583169150620000be90505760405162461bcd60e51b815260206004820152602960248201527f4f726967696e616c546f6b656e4272696467653a20696e76616c69642057455460448201526848206164647265737360b81b606482015260840160405180910390fd5b600a919091556001600160a01b031660a0525062000185565b600080546001600160a01b038381166001600160a01b0319831681178455604051919092169283917f8be0079c531659141344cd1fd0a4f28419497f9722a3daafe3b4186f6b6457e09190a35050565b80516001600160a01b03811681146200013f57600080fd5b919050565b6000806000606084860312156200015a57600080fd5b620001658462000127565b9250602084015191506200017c6040850162000127565b90509250925092565b60805160a051613afe6200020d6000396000818161038e015281816113c20152818161147a015281816114a40152818161151b015281816120a201526120f90152600081816105c6015281816107c60152818161093001528181610a7401528181610c6c015281816111b4015281816117b801528181611a6b01526128d10152613afe6000f3fe6080604052600436106102295760003560e01c80638da5cb5b11610123578063dfe6aa88116100ab578063ed629c5c1161006f578063ed629c5c14610718578063eeed81c414610732578063f2fde38b14610752578063f717986e14610772578063fe359a0d1461079257600080fd5b8063dfe6aa881461062e578063e540076e14610666578063e823553e146106b5578063e9518196146106e2578063eab45d9c146106f857600080fd5b8063a2f27ae0116100f2578063a2f27ae014610594578063b353aaa7146105b4578063baf3292d146105e8578063c7e82ebd14610608578063dc3d9e021461061b57600080fd5b80638da5cb5b146105165780638f45709914610534578063950c8a7414610554578063a0f4d4871461057457600080fd5b806346f6f9b5116101b15780636d1cc7d2116101755780636d1cc7d2146104815780636ed71955146104a1578063715018a6146104c15780637db66e4c146104d65780638365c638146104f657600080fd5b806346f6f9b5146103c857806351df3b92146103ef5780635a4967e51461041c57806368c4ac261461043c57806368ea28b01461046c57600080fd5b806320211678116101f857806320211678146102b75780632d09c4ed146102f157806332083d8e1461032c578063363dc9051461034c5780633fc8cef31461037c57600080fd5b806307e0db17146102355780631095b6d71461025757806310ddb13714610277578063166b4ae81461029757600080fd5b3661023057005b600080fd5b34801561024157600080fd5b50610255610250366004612d41565b6107a5565b005b34801561026357600080fd5b50610255610272366004612d71565b61082e565b34801561028357600080fd5b50610255610292366004612d41565b61090f565b3480156102a357600080fd5b506102556102b2366004612db2565b610967565b3480156102c357600080fd5b506102d76102d2366004612e3d565b610a1f565b604080519283526020830191909152015b60405180910390f35b3480156102fd57600080fd5b5061031e61030c366004612e91565b60096020526000908152604090205481565b6040519081526020016102e8565b34801561033857600080fd5b50610255610347366004612eae565b610afe565b34801561035857600080fd5b5061036c610367366004612eae565b610b75565b60405190151581526020016102e8565b34801561038857600080fd5b506103b07f000000000000000000000000000000000000000000000000000000000000000081565b6040516001600160a01b0390911681526020016102e8565b3480156103d457600080fd5b506103dd600081565b60405160ff90911681526020016102e8565b3480156103fb57600080fd5b5061040f61040a366004612ee0565b610c3c565b6040516102e89190612f76565b34801561042857600080fd5b50610255610437366004612f98565b610cee565b34801561044857600080fd5b5061036c610457366004612e91565b60076020526000908152604090205460ff1681565b34801561047857600080fd5b506103dd600181565b34801561048d57600080fd5b5061025561049c366004612eae565b610f05565b3480156104ad57600080fd5b5061040f6104bc366004612fd1565b610f5a565b3480156104cd57600080fd5b5061025561106b565b3480156104e257600080fd5b506102556104f1366004612fd1565b611075565b34801561050257600080fd5b50610255610511366004613001565b6110b9565b34801561052257600080fd5b506000546001600160a01b03166103b0565b34801561054057600080fd5b5061025561054f366004612eae565b611195565b34801561056057600080fd5b506003546103b0906001600160a01b031681565b34801561058057600080fd5b5061040f61058f366004612fd1565b611224565b3480156105a057600080fd5b5061031e6105af366004612e91565b6112be565b3480156105c057600080fd5b506103b07f000000000000000000000000000000000000000000000000000000000000000081565b3480156105f457600080fd5b50610255610603366004612e91565b61135a565b610255610616366004613168565b6113b0565b610255610629366004613001565b611560565b34801561063a57600080fd5b5061031e6106493660046131d2565b600260209081526000928352604080842090915290825290205481565b34801561067257600080fd5b5061031e6106813660046131fe565b6004602090815260009384526040808520845180860184018051928152908401958401959095209452929052825290205481565b3480156106c157600080fd5b5061031e6106d0366004612e91565b60086020526000908152604090205481565b3480156106ee57600080fd5b5061031e600a5481565b34801561070457600080fd5b50610255610713366004613254565b61176c565b34801561072457600080fd5b5060065461036c9060ff1681565b34801561073e57600080fd5b5061025561074d366004613001565b6117b5565b34801561075e57600080fd5b5061025561076d366004612e91565b6119d3565b34801561077e57600080fd5b5061025561078d366004613271565b611a4c565b6102556107a03660046132d8565b611ae1565b6107ad611c61565b6040516307e0db1760e01b815261ffff821660048201527f00000000000000000000000000000000000000000000000000000000000000006001600160a01b0316906307e0db17906024015b600060405180830381600087803b15801561081357600080fd5b505af1158015610827573d6000803e3d6000fd5b5050505050565b610836611c61565b6000610841846112be565b9050808211156108af5760405162461bcd60e51b815260206004820152602e60248201527f4f726967696e616c546f6b656e4272696467653a206e6f7420656e6f7567682060448201526d1999595cc818dbdb1b1958dd195960921b60648201526084015b60405180910390fd5b6108c36001600160a01b0385168484611cbb565b604080516001600160a01b038581168252602082018590528616917ff15a0a3784dea9b4fe33bc98e2450745e262d310237b2868ea8ef56967ff3ecb910160405180910390a250505050565b610917611c61565b6040516310ddb13760e01b815261ffff821660048201527f00000000000000000000000000000000000000000000000000000000000000006001600160a01b0316906310ddb137906024016107f9565b61096f611c61565b600081116109b75760405162461bcd60e51b81526020600482015260156024820152744c7a4170703a20696e76616c6964206d696e47617360581b60448201526064016108a6565b600083815260026020908152604080832061ffff8616808552908352928190208490558051868152918201929092529081018290527ff719b08d0d2d4639fb0372e9830249577547a0d8fbbf001706fba5512090004a906060015b60405180910390a1505050565b60408051600060208201819052309282018390526060820192909252608081018290528190819060a00160408051601f1981840301815290829052600a5463568a0a1760e01b83529092506001600160a01b037f0000000000000000000000000000000000000000000000000000000000000000169163568a0a1791610ab191309086908c908c908c9060040161337e565b6040805180830381865afa158015610acd573d6000803e3d6000fd5b505050506040513d601f19601f82011682018060405250810190610af191906133d0565b9250925050935093915050565b610b06611c61565b818130604051602001610b1b939291906133f4565b60408051601f19818403018152918152600085815260016020522090610b419082613494565b507f4debf422f25b506edb14c37e511025fc519a36c0857d54766830f240a67a0c6a838383604051610a1293929190613553565b60008381526001602052604081208054829190610b919061341a565b80601f0160208091040260200160405190810160405280929190818152602001828054610bbd9061341a565b8015610c0a5780601f10610bdf57610100808354040283529160200191610c0a565b820191906000526020600020905b815481529060010190602001808311610bed57829003601f168201915b505050505090508383604051610c2192919061356d565b60405180910390208180519060200120149150509392505050565b6040516328ef9dc960e11b815261ffff8516600482015260248101849052306044820152606481018290526060907f00000000000000000000000000000000000000000000000000000000000000006001600160a01b0316906351df3b9290608401600060405180830381865afa158015610cbb573d6000803e3d6000fd5b505050506040513d6000823e601f3d908101601f19168201604052610ce3919081019061357d565b90505b949350505050565b610cf6611c61565b6001600160a01b038216610d5f5760405162461bcd60e51b815260206004820152602a60248201527f4f726967696e616c546f6b656e4272696467653a20696e76616c696420746f6b604482015269656e206164647265737360b01b60648201526084016108a6565b6001600160a01b03821660009081526007602052604090205460ff1615610dde5760405162461bcd60e51b815260206004820152602d60248201527f4f726967696e616c546f6b656e4272696467653a20746f6b656e20616c72656160448201526c191e481c9959da5cdd195c9959609a1b60648201526084016108a6565b6000610de983611d23565b90508160ff168160ff161015610e815760405162461bcd60e51b815260206004820152605160248201527f4f726967696e616c546f6b656e4272696467653a20736861726564206465636960448201527f6d616c73206d757374206265206c657373207468616e206f7220657175616c20606482015270746f206c6f63616c20646563696d616c7360781b608482015260a4016108a6565b6001600160a01b0383166000908152600760205260409020805460ff19166001179055610eae8282613609565b610eb990600a613706565b6001600160a01b03841660008181526008602090815260409182902093909355519081527ff7fe8023cb2e36bde1d59a88ac5763a8c11be6d25e6819f71bb7e23e5bf0dc169101610a12565b610f0d611c61565b6000838152600160205260409020610f26828483613715565b507fd96cfe9f1a35384059e5c139c7ffa913a61868863bd5cf53e2564c1b1187221e838383604051610a1293929190613553565b600081815260016020526040812080546060929190610f789061341a565b80601f0160208091040260200160405190810160405280929190818152602001828054610fa49061341a565b8015610ff15780601f10610fc657610100808354040283529160200191610ff1565b820191906000526020600020905b815481529060010190602001808311610fd457829003601f168201915b5050505050905080516000036110495760405162461bcd60e51b815260206004820152601d60248201527f4c7a4170703a206e6f20747275737465642070617468207265636f726400000060448201526064016108a6565b61106460006014835161105c91906137d4565b839190611e29565b9392505050565b611073611c61565b565b61107d611c61565b600a8190556040518181527f8d0f76d581abb1231b62dacf3e97e93f260973532465b21202a413e99e2ab82a906020015b60405180910390a150565b3330146111175760405162461bcd60e51b815260206004820152602660248201527f4e6f6e626c6f636b696e674c7a4170703a2063616c6c6572206d7573742062656044820152650204c7a4170760d41b60648201526084016108a6565b61118d8686868080601f01602080910402602001604051908101604052809392919081815260200183838082843760009201919091525050604080516020601f890181900481028201810190925287815289935091508790879081908401838280828437600092019190915250611f3692505050565b505050505050565b61119d611c61565b604051638f45709960e01b81526001600160a01b037f00000000000000000000000000000000000000000000000000000000000000001690638f457099906111ed90869086908690600401613553565b600060405180830381600087803b15801561120757600080fd5b505af115801561121b573d6000803e3d6000fd5b50505050505050565b6001602052600090815260409020805461123d9061341a565b80601f01602080910402602001604051908101604052809291908181526020018280546112699061341a565b80156112b65780601f1061128b576101008083540402835291602001916112b6565b820191906000526020600020905b81548152906001019060200180831161129957829003601f168201915b505050505081565b6001600160a01b0381166000908152600960205260408120546112e29083906122c9565b6040516370a0823160e01b81523060048201526001600160a01b038416906370a0823190602401602060405180830381865afa158015611326573d6000803e3d6000fd5b505050506040513d601f19601f8201168201806040525081019061134a91906137e7565b61135491906137d4565b92915050565b611362611c61565b600380546001600160a01b0319166001600160a01b0383169081179091556040519081527f5db758e995a17ec1ad84bdef7e8c3293a0bd6179bcce400dff5d4c3d87db726b906020016110ae565b6113b86122ec565b6001600160a01b037f00000000000000000000000000000000000000000000000000000000000000001660009081526007602052604090205460ff166114105760405162461bcd60e51b81526004016108a690613800565b833410156114735760405162461bcd60e51b815260206004820152602a60248201527f4f726967696e616c546f6b656e4272696467653a206e6f7420656e6f756768206044820152691d985b1d59481cd95b9d60b21b60648201526084016108a6565b600061149f7f000000000000000000000000000000000000000000000000000000000000000086612345565b5090507f00000000000000000000000000000000000000000000000000000000000000006001600160a01b031663d0e30db0826040518263ffffffff1660e01b81526004016000604051808303818588803b1580156114fd57600080fd5b505af1158015611511573d6000803e3d6000fd5b505050505061154f7f00000000000000000000000000000000000000000000000000000000000000008286843461154891906137d4565b878761237f565b5061155a6001600555565b50505050565b600086815260046020526040808220905161157e908890889061356d565b90815260408051602092819003830190206001600160401b038716600090815292529020549050806115fe5760405162461bcd60e51b815260206004820152602360248201527f4e6f6e626c6f636b696e674c7a4170703a206e6f2073746f726564206d65737360448201526261676560e81b60648201526084016108a6565b80838360405161160f92919061356d565b60405180910390201461166e5760405162461bcd60e51b815260206004820152602160248201527f4e6f6e626c6f636b696e674c7a4170703a20696e76616c6964207061796c6f616044820152601960fa1b60648201526084016108a6565b600087815260046020526040808220905161168c908990899061356d565b90815260408051602092819003830181206001600160401b038916600090815290845282902093909355601f88018290048202830182019052868252611724918991899089908190840183828082843760009201919091525050604080516020601f8a018190048102820181019092528881528a935091508890889081908401838280828437600092019190915250611f3692505050565b7f85964bbb9f663dc45133d203c4499633f99a40f37422701ddfa5677b70a2e8d7878787878560405161175b95949392919061384b565b60405180910390a150505050505050565b611774611c61565b6006805460ff19168215159081179091556040519081527f1584ad594a70cbe1e6515592e1272a987d922b097ead875069cebe8b40c004a4906020016110ae565b337f00000000000000000000000000000000000000000000000000000000000000006001600160a01b03161461182d5760405162461bcd60e51b815260206004820152601e60248201527f4c7a4170703a20696e76616c696420656e64706f696e742063616c6c6572000060448201526064016108a6565b600086815260016020526040812080546118469061341a565b80601f01602080910402602001604051908101604052809291908181526020018280546118729061341a565b80156118bf5780601f10611894576101008083540402835291602001916118bf565b820191906000526020600020905b8154815290600101906020018083116118a257829003601f168201915b505050505090508051868690501480156118da575060008151115b80156119025750805160208201206040516118f8908890889061356d565b6040518091039020145b61195d5760405162461bcd60e51b815260206004820152602660248201527f4c7a4170703a20696e76616c696420736f757263652073656e64696e6720636f6044820152651b9d1c9858dd60d21b60648201526084016108a6565b61121b8787878080601f01602080910402602001604051908101604052809392919081815260200183838082843760009201919091525050604080516020601f8a018190048102820181019092528881528a93509150889088908190840183828082843760009201919091525061254592505050565b6119db611c61565b6001600160a01b038116611a405760405162461bcd60e51b815260206004820152602660248201527f4f776e61626c653a206e6577206f776e657220697320746865207a65726f206160448201526564647265737360d01b60648201526084016108a6565b611a49816125be565b50565b611a54611c61565b604051637b8bcc3760e11b81526001600160a01b037f0000000000000000000000000000000000000000000000000000000000000000169063f717986e90611aa89088908890889088908890600401613882565b600060405180830381600087803b158015611ac257600080fd5b505af1158015611ad6573d6000803e3d6000fd5b505050505050505050565b611ae96122ec565b6001600160a01b03851660009081526007602052604090205460ff16611b215760405162461bcd60e51b81526004016108a690613800565b6040516370a0823160e01b81523060048201526000906001600160a01b038716906370a0823190602401602060405180830381865afa158015611b68573d6000803e3d6000fd5b505050506040513d601f19601f82011682018060405250810190611b8c91906137e7565b9050611ba36001600160a01b03871633308861260e565b6040516370a0823160e01b81523060048201526000906001600160a01b038816906370a0823190602401602060405180830381865afa158015611bea573d6000803e3d6000fd5b505050506040513d601f19601f82011682018060405250810190611c0e91906137e7565b9050600080611c2689611c2186866137d4565b612345565b90925090508015611c4557611c456001600160a01b038a163383611cbb565b611c53898389348a8a61237f565b505050506108276001600555565b6000546001600160a01b031633146110735760405162461bcd60e51b815260206004820181905260248201527f4f776e61626c653a2063616c6c6572206973206e6f7420746865206f776e657260448201526064016108a6565b6040516001600160a01b038316602482015260448101829052611d1e90849063a9059cbb60e01b906064015b60408051601f198184030181529190526020810180516001600160e01b03166001600160e01b031990931692909217909152612646565b505050565b60408051600481526024810182526020810180516001600160e01b031663313ce56760e01b1790529051600091829182916001600160a01b03861691611d6991906138ac565b600060405180830381855afa9150503d8060008114611da4576040519150601f19603f3d011682016040523d82523d6000602084013e611da9565b606091505b509150915081611e155760405162461bcd60e51b815260206004820152603160248201527f4f726967696e616c546f6b656e4272696467653a206661696c656420746f2067604482015270657420746f6b656e20646563696d616c7360781b60648201526084016108a6565b80806020019051810190610ce691906138c8565b606081611e3781601f6138e5565b1015611e765760405162461bcd60e51b815260206004820152600e60248201526d736c6963655f6f766572666c6f7760901b60448201526064016108a6565b611e8082846138e5565b84511015611ec45760405162461bcd60e51b8152602060048201526011602482015270736c6963655f6f75744f66426f756e647360781b60448201526064016108a6565b606082158015611ee35760405191506000825260208201604052611f2d565b6040519150601f8416801560200281840101858101878315602002848b0101015b81831015611f1c578051835260209283019201611f04565b5050858452601f01601f1916604052505b50949350505050565b600a548414611f9c5760405162461bcd60e51b815260206004820152602c60248201527f4f726967696e616c546f6b656e4272696467653a20696e76616c696420736f7560448201526b1c98d94818da185a5b881a5960a21b60648201526084016108a6565b60008060008060008086806020019051810190611fb991906138f8565b955095509550955095509550600160ff168660ff161461202c5760405162461bcd60e51b815260206004820152602860248201527f4f726967696e616c546f6b656e4272696467653a20756e6b6e6f776e207061636044820152676b6574207479706560c01b60648201526084016108a6565b6001600160a01b03851660009081526007602052604090205460ff166120645760405162461bcd60e51b81526004016108a690613800565b6001600160a01b0385166000908152600960205260408120805484929061208c9084906137d4565b909155506000905061209e86856122c9565b90507f00000000000000000000000000000000000000000000000000000000000000006001600160a01b0316866001600160a01b03161480156120de5750815b1561225c57604051632e1a7d4d60e01b8152600481018290527f00000000000000000000000000000000000000000000000000000000000000006001600160a01b031690632e1a7d4d90602401600060405180830381600087803b15801561214557600080fd5b505af1158015612159573d6000803e3d6000fd5b505050506000856001600160a01b03168260405160006040518083038185875af1925050503d80600081146121aa576040519150601f19603f3d011682016040523d82523d6000602084013e6121af565b606091505b505090508061220c5760405162461bcd60e51b815260206004820152602360248201527f4f726967696e616c546f6b656e4272696467653a206661696c656420746f2073604482015262195b9960ea1b60648201526084016108a6565b60408051600081526001600160a01b03881660208201529081018390527f5e3da8fba24af91505c66214c9e629ba712ce2c1b8c318f14f7024fdcba544a89060600160405180910390a1506122bc565b6122706001600160a01b0387168683611cbb565b604080516001600160a01b038089168252871660208201529081018290527f5e3da8fba24af91505c66214c9e629ba712ce2c1b8c318f14f7024fdcba544a89060600160405180910390a15b5050505050505050505050565b6001600160a01b038216600090815260086020526040812054611064908361396c565b60026005540361233e5760405162461bcd60e51b815260206004820152601f60248201527f5265656e7472616e637947756172643a207265656e7472616e742063616c6c0060448201526064016108a6565b6002600555565b6001600160a01b038216600090815260086020526040812054819061236a9084613999565b905061237681846137d4565b91509250929050565b6001600160a01b0384166123d55760405162461bcd60e51b815260206004820152601f60248201527f4f726967696e616c546f6b656e4272696467653a20696e76616c696420746f0060448201526064016108a6565b600a546123e490600083612718565b60006123f08787612794565b90506000811161244e5760405162461bcd60e51b815260206004820152602360248201527f4f726967696e616c546f6b656e4272696467653a20696e76616c696420616d6f6044820152621d5b9d60ea1b60648201526084016108a6565b6001600160a01b038716600090815260096020526040812080548392906124769084906138e5565b9091555050604080516000602082018190526001600160a01b03808b169383019390935291871660608201526080810183905260a00160408051601f19818403018152919052600a549091506124eb90826124d46020880188612e91565b6124e46040890160208a01612e91565b878a6127b7565b604080516001600160a01b038a811682523360208301528816818301526060810189905290517f49b9b5358c9580b3e6c5ee10b8b260c1e64bede87cb8a212e9e20a0b7dc20e5a9181900360800190a15050505050505050565b6000806125a85a6096638365c63860e01b8989898960405160240161256d94939291906139ad565b60408051601f198184030181529190526020810180516001600160e01b03166001600160e01b0319909316929092179091523092919061294d565b915091508161118d5761118d86868686856129d7565b600080546001600160a01b038381166001600160a01b0319831681178455604051919092169283917f8be0079c531659141344cd1fd0a4f28419497f9722a3daafe3b4186f6b6457e09190a35050565b6040516001600160a01b038085166024830152831660448201526064810182905261155a9085906323b872dd60e01b90608401611ce7565b600061269b826040518060400160405280602081526020017f5361666545524332303a206c6f772d6c6576656c2063616c6c206661696c6564815250856001600160a01b0316612a6c9092919063ffffffff16565b805190915015611d1e57808060200190518101906126b991906139e7565b611d1e5760405162461bcd60e51b815260206004820152602a60248201527f5361666545524332303a204552433230206f7065726174696f6e20646964206e6044820152691bdd081cdd58d8d9595960b21b60648201526084016108a6565b60065460ff161561273057611d1e8383836000612a7b565b805115611d1e5760405162461bcd60e51b815260206004820152602c60248201527f546f6b656e427269646765426173653a2061646170746572506172616d73206d60448201526b75737420626520656d70747960a01b60648201526084016108a6565b6001600160a01b0382166000908152600860205260408120546110649083613a04565b600086815260016020526040812080546127d09061341a565b80601f01602080910402602001604051908101604052809291908181526020018280546127fc9061341a565b80156128495780601f1061281e57610100808354040283529160200191612849565b820191906000526020600020905b81548152906001019060200180831161282c57829003601f168201915b5050505050905080516000036128ba5760405162461bcd60e51b815260206004820152603060248201527f4c7a4170703a2064657374696e6174696f6e20636861696e206973206e6f742060448201526f61207472757374656420736f7572636560801b60648201526084016108a6565b60405163654bc36560e01b81526001600160a01b037f0000000000000000000000000000000000000000000000000000000000000000169063654bc365908490612912908b9086908c908c908c908c90600401613a18565b6000604051808303818588803b15801561292b57600080fd5b505af115801561293f573d6000803e3d6000fd5b505050505050505050505050565b6000606060008060008661ffff166001600160401b03811115612972576129726130a5565b6040519080825280601f01601f19166020018201604052801561299c576020820181803683370190505b50905060008087516020890160008d8df191503d9250868311156129be578692505b828152826000602083013e909890975095505050505050565b81805190602001206004600087815260200190815260200160002085604051612a0091906138ac565b9081526040805191829003602090810183206001600160401b0388166000908152915220919091557f6db5472a51c00bdf9121aee3336b6c10821175f2bdcdc3862630936d4b1aef1990612a5d9087908790879087908790613a6e565b60405180910390a15050505050565b6060610ce68484600085612b55565b6000612a8683612c30565b600086815260026020908152604080832061ffff8916845290915281205491925090612ab39084906138e5565b905060008111612b055760405162461bcd60e51b815260206004820152601a60248201527f4c7a4170703a206d696e4761734c696d6974206e6f742073657400000000000060448201526064016108a6565b8082101561118d5760405162461bcd60e51b815260206004820152601b60248201527f4c7a4170703a20676173206c696d697420697320746f6f206c6f77000000000060448201526064016108a6565b606082471015612bb65760405162461bcd60e51b815260206004820152602660248201527f416464726573733a20696e73756666696369656e742062616c616e636520666f6044820152651c8818d85b1b60d21b60648201526084016108a6565b600080866001600160a01b03168587604051612bd291906138ac565b60006040518083038185875af1925050503d8060008114612c0f576040519150601f19603f3d011682016040523d82523d6000602084013e612c14565b606091505b5091509150612c2587838387612c8c565b979650505050505050565b6000602282511015612c845760405162461bcd60e51b815260206004820152601c60248201527f4c7a4170703a20696e76616c69642061646170746572506172616d730000000060448201526064016108a6565b506022015190565b60608315612cfb578251600003612cf4576001600160a01b0385163b612cf45760405162461bcd60e51b815260206004820152601d60248201527f416464726573733a2063616c6c20746f206e6f6e2d636f6e747261637400000060448201526064016108a6565b5081610ce6565b610ce68383815115612d105781518083602001fd5b8060405162461bcd60e51b81526004016108a69190612f76565b803561ffff81168114612d3c57600080fd5b919050565b600060208284031215612d5357600080fd5b61106482612d2a565b6001600160a01b0381168114611a4957600080fd5b600080600060608486031215612d8657600080fd5b8335612d9181612d5c565b92506020840135612da181612d5c565b929592945050506040919091013590565b600080600060608486031215612dc757600080fd5b83359250612dd760208501612d2a565b9150604084013590509250925092565b8015158114611a4957600080fd5b60008083601f840112612e0757600080fd5b5081356001600160401b03811115612e1e57600080fd5b602083019150836020828501011115612e3657600080fd5b9250929050565b600080600060408486031215612e5257600080fd5b8335612e5d81612de7565b925060208401356001600160401b03811115612e7857600080fd5b612e8486828701612df5565b9497909650939450505050565b600060208284031215612ea357600080fd5b813561106481612d5c565b600080600060408486031215612ec357600080fd5b8335925060208401356001600160401b03811115612e7857600080fd5b60008060008060808587031215612ef657600080fd5b612eff85612d2a565b9350602085013592506040850135612f1681612d5c565b9396929550929360600135925050565b60005b83811015612f41578181015183820152602001612f29565b50506000910152565b60008151808452612f62816020860160208601612f26565b601f01601f19169290920160200192915050565b6020815260006110646020830184612f4a565b60ff81168114611a4957600080fd5b60008060408385031215612fab57600080fd5b8235612fb681612d5c565b91506020830135612fc681612f89565b809150509250929050565b600060208284031215612fe357600080fd5b5035919050565b80356001600160401b0381168114612d3c57600080fd5b6000806000806000806080878903121561301a57600080fd5b8635955060208701356001600160401b038082111561303857600080fd5b6130448a838b01612df5565b909750955085915061305860408a01612fea565b9450606089013591508082111561306e57600080fd5b5061307b89828a01612df5565b979a9699509497509295939492505050565b60006040828403121561309f57600080fd5b50919050565b634e487b7160e01b600052604160045260246000fd5b604051601f8201601f191681016001600160401b03811182821017156130e3576130e36130a5565b604052919050565b60006001600160401b03821115613104576131046130a5565b50601f01601f191660200190565b600082601f83011261312357600080fd5b8135613136613131826130eb565b6130bb565b81815284602083860101111561314b57600080fd5b816020850160208301376000918101602001919091529392505050565b60008060008060a0858703121561317e57600080fd5b84359350602085013561319081612d5c565b925061319f866040870161308d565b915060808501356001600160401b038111156131ba57600080fd5b6131c687828801613112565b91505092959194509250565b600080604083850312156131e557600080fd5b823591506131f560208401612d2a565b90509250929050565b60008060006060848603121561321357600080fd5b8335925060208401356001600160401b0381111561323057600080fd5b61323c86828701613112565b92505061324b60408501612fea565b90509250925092565b60006020828403121561326657600080fd5b813561106481612de7565b60008060008060006080868803121561328957600080fd5b61329286612d2a565b9450602086013593506040860135925060608601356001600160401b038111156132bb57600080fd5b6132c788828901612df5565b969995985093965092949392505050565b600080600080600060c086880312156132f057600080fd5b85356132fb81612d5c565b945060208601359350604086013561331281612d5c565b9250613321876060880161308d565b915060a08601356001600160401b0381111561333c57600080fd5b61334888828901613112565b9150509295509295909350565b81835281816020850137506000828201602090810191909152601f909101601f19169091010190565b8681526001600160a01b038616602082015260a0604082018190526000906133a890830187612f4a565b851515606084015282810360808401526133c3818587613355565b9998505050505050505050565b600080604083850312156133e357600080fd5b505080516020909101519092909150565b8284823760609190911b6bffffffffffffffffffffffff19169101908152601401919050565b600181811c9082168061342e57607f821691505b60208210810361309f57634e487b7160e01b600052602260045260246000fd5b601f821115611d1e57600081815260208120601f850160051c810160208610156134755750805b601f850160051c820191505b8181101561118d57828155600101613481565b81516001600160401b038111156134ad576134ad6130a5565b6134c1816134bb845461341a565b8461344e565b602080601f8311600181146134f657600084156134de5750858301515b600019600386901b1c1916600185901b17855561118d565b600085815260208120601f198616915b8281101561352557888601518255948401946001909101908401613506565b50858210156135435787850151600019600388901b60f8161c191681555b5050505050600190811b01905550565b838152604060208201526000610ce3604083018486613355565b8183823760009101908152919050565b60006020828403121561358f57600080fd5b81516001600160401b038111156135a557600080fd5b8201601f810184136135b657600080fd5b80516135c4613131826130eb565b8181528560208385010111156135d957600080fd5b6135ea826020830160208601612f26565b95945050505050565b634e487b7160e01b600052601160045260246000fd5b60ff8281168282160390811115611354576113546135f3565b600181815b8085111561365d578160001904821115613643576136436135f3565b8085161561365057918102915b93841c9390800290613627565b509250929050565b60008261367457506001611354565b8161368157506000611354565b816001811461369757600281146136a1576136bd565b6001915050611354565b60ff8411156136b2576136b26135f3565b50506001821b611354565b5060208310610133831016604e8410600b84101617156136e0575081810a611354565b6136ea8383613622565b80600019048211156136fe576136fe6135f3565b029392505050565b600061106460ff841683613665565b6001600160401b0383111561372c5761372c6130a5565b6137408361373a835461341a565b8361344e565b6000601f841160018114613774576000851561375c5750838201355b600019600387901b1c1916600186901b178355610827565b600083815260209020601f19861690835b828110156137a55786850135825560209485019460019092019101613785565b50868210156137c25760001960f88860031b161c19848701351681555b505060018560011b0183555050505050565b81810381811115611354576113546135f3565b6000602082840312156137f957600080fd5b5051919050565b6020808252602b908201527f4f726967696e616c546f6b656e4272696467653a20746f6b656e206973206e6f60408201526a1d081cdd5c1c1bdc9d195960aa1b606082015260800190565b858152608060208201526000613865608083018688613355565b6001600160401b0394909416604083015250606001529392505050565b61ffff86168152846020820152836040820152608060608201526000612c25608083018486613355565b600082516138be818460208701612f26565b9190910192915050565b6000602082840312156138da57600080fd5b815161106481612f89565b80820180821115611354576113546135f3565b60008060008060008060c0878903121561391157600080fd5b865161391c81612f89565b602088015190965061392d81612d5c565b604088015190955061393e81612d5c565b80945050606087015192506080870151915060a087015161395e81612de7565b809150509295509295509295565b8082028115828204841417611354576113546135f3565b634e487b7160e01b600052601260045260246000fd5b6000826139a8576139a8613983565b500690565b8481526080602082015260006139c66080830186612f4a565b6001600160401b03851660408401528281036060840152612c258185612f4a565b6000602082840312156139f957600080fd5b815161106481612de7565b600082613a1357613a13613983565b500490565b86815260c060208201526000613a3160c0830188612f4a565b8281036040840152613a438188612f4a565b6001600160a01b0387811660608601528616608085015283810360a085015290506133c38185612f4a565b85815260a060208201526000613a8760a0830187612f4a565b6001600160401b03861660408401528281036060840152613aa88186612f4a565b90508281036080840152613abc8185612f4a565b9897505050505050505056fea26469706673582212205ee681635444bfd426b4b78d016ab67da9425b28edf1783c2958e370cd8cc7df64736f6c63430008110033",
  "devdoc": {
    "details": "Locks an ERC20 on the source chain and sends LZ message to the remote chain to mint a wrapped token",
    "kind": "dev",
    "methods": {
      "bridge(address,uint256,address,(address,address),bytes)": {
        "details": "Locks an ERC20 on the source chain and sends LZ message to the remote chain to mint a wrapped token"
      },
      "bridgeNative(uint256,address,(address,address),bytes)": {
        "details": "Locks WETH on the source chain and sends LZ message to the remote chain to mint a wrapped token"
      },
      "owner()": {
        "details": "Returns the address of the current owner."
      },
      "registerToken(address,uint8)": {
        "params": {
          "sharedDecimals": "number of decimals used for all original tokens mapped to the same wrapped token. E.g., 6 is shared decimals for USDC on Ethereum, BSC and Polygon",
          "token": "address of the token"
        }
      },
      "renounceOwnership()": {
        "details": "Overrides the renounce ownership logic inherited from openZeppelin `Ownable`"
      },
      "setUseCustomAdapterParams(bool)": {
        "details": "Can be called only by the bridge owner"
      },
      "transferOwnership(address)": {
        "details": "Transfers ownership of the contract to a new account (`newOwner`). Can only be called by the current owner."
      }
    },
    "version": 1
  },
  "userdoc": {
    "kind": "user",
    "methods": {
      "LDtoSDConversionRate(address)": {
        "notice": "Token conversion rates from local decimals (LD) to shared decimals (SD). E.g., if local decimals is 18 and shared decimals is 6, the conversion rate is 10^12"
      },
      "PT_MINT()": {
        "notice": "A packet type used to identify messages requesting minting of wrapped tokens"
      },
      "PT_UNLOCK()": {
        "notice": "A packet type used to identify messages requesting unlocking of original tokens"
      },
      "bridge(address,uint256,address,(address,address),bytes)": {
        "notice": "Bridges ERC20 to the remote chain"
      },
      "bridgeNative(uint256,address,(address,address),bytes)": {
        "notice": "Bridges native gas token (e.g. ETH) to the remote chain"
      },
      "registerToken(address,uint8)": {
        "notice": "Registers a token for bridging"
      },
      "remoteChainId()": {
        "notice": "LayerZero id of the remote chain where wrapped tokens are minted"
      },
      "setUseCustomAdapterParams(bool)": {
        "notice": "Sets the `useCustomAdapterParams` flag indicating whether the contract uses custom adapter parameters or the default ones"
      },
      "supportedTokens(address)": {
        "notice": "Tokens that can be bridged to the remote chain"
      },
      "totalValueLockedSD(address)": {
        "notice": "Total value locked per each supported token in shared decimals"
      },
      "weth()": {
        "notice": "Address of the wrapped native gas token (e.g. WETH, WBNB, WMATIC)"
      }
    },
    "version": 1
  },
  "storageLayout": {
    "storage": [
      {
        "astId": 1583,
        "contract": "contracts/OriginalTokenBridge.sol:OriginalTokenBridge",
        "label": "_owner",
        "offset": 0,
        "slot": "0",
        "type": "t_address"
      },
      {
        "astId": 437,
        "contract": "contracts/OriginalTokenBridge.sol:OriginalTokenBridge",
        "label": "trustedRemoteLookup",
        "offset": 0,
        "slot": "1",
        "type": "t_mapping(t_uint256,t_bytes_storage)"
      },
      {
        "astId": 443,
        "contract": "contracts/OriginalTokenBridge.sol:OriginalTokenBridge",
        "label": "minDstGasLookup",
        "offset": 0,
        "slot": "2",
        "type": "t_mapping(t_uint256,t_mapping(t_uint16,t_uint256))"
      },
      {
        "astId": 445,
        "contract": "contracts/OriginalTokenBridge.sol:OriginalTokenBridge",
        "label": "precrime",
        "offset": 0,
        "slot": "3",
        "type": "t_address"
      },
      {
        "astId": 930,
        "contract": "contracts/OriginalTokenBridge.sol:OriginalTokenBridge",
        "label": "failedMessages",
        "offset": 0,
        "slot": "4",
        "type": "t_mapping(t_uint256,t_mapping(t_bytes_memory_ptr,t_mapping(t_uint64,t_bytes32)))"
      },
      {
        "astId": 1699,
        "contract": "contracts/OriginalTokenBridge.sol:OriginalTokenBridge",
        "label": "_status",
        "offset": 0,
        "slot": "5",
        "type": "t_uint256"
      },
      {
        "astId": 3265,
        "contract": "contracts/OriginalTokenBridge.sol:OriginalTokenBridge",
        "label": "useCustomAdapterParams",
        "offset": 0,
        "slot": "6",
        "type": "t_bool"
      },
      {
        "astId": 2513,
        "contract": "contracts/OriginalTokenBridge.sol:OriginalTokenBridge",
        "label": "supportedTokens",
        "offset": 0,
        "slot": "7",
        "type": "t_mapping(t_address,t_bool)"
      },
      {
        "astId": 2518,
        "contract": "contracts/OriginalTokenBridge.sol:OriginalTokenBridge",
        "label": "LDtoSDConversionRate",
        "offset": 0,
        "slot": "8",
        "type": "t_mapping(t_address,t_uint256)"
      },
      {
        "astId": 2523,
        "contract": "contracts/OriginalTokenBridge.sol:OriginalTokenBridge",
        "label": "totalValueLockedSD",
        "offset": 0,
        "slot": "9",
        "type": "t_mapping(t_address,t_uint256)"
      },
      {
        "astId": 2526,
        "contract": "contracts/OriginalTokenBridge.sol:OriginalTokenBridge",
        "label": "remoteChainId",
        "offset": 0,
        "slot": "10",
        "type": "t_uint256"
      }
    ],
    "types": {
      "t_address": {
        "encoding": "inplace",
        "label": "address",
        "numberOfBytes": "20"
      },
      "t_bool": {
        "encoding": "inplace",
        "label": "bool",
        "numberOfBytes": "1"
      },
      "t_bytes32": {
        "encoding": "inplace",
        "label": "bytes32",
        "numberOfBytes": "32"
      },
      "t_bytes_memory_ptr": {
        "encoding": "bytes",
        "label": "bytes",
        "numberOfBytes": "32"
      },
      "t_bytes_storage": {
        "encoding": "bytes",
        "label": "bytes",
        "numberOfBytes": "32"
      },
      "t_mapping(t_address,t_bool)": {
        "encoding": "mapping",
        "key": "t_address",
        "label": "mapping(address => bool)",
        "numberOfBytes": "32",
        "value": "t_bool"
      },
      "t_mapping(t_address,t_uint256)": {
        "encoding": "mapping",
        "key": "t_address",
        "label": "mapping(address => uint256)",
        "numberOfBytes": "32",
        "value": "t_uint256"
      },
      "t_mapping(t_bytes_memory_ptr,t_mapping(t_uint64,t_bytes32))": {
        "encoding": "mapping",
        "key": "t_bytes_memory_ptr",
        "label": "mapping(bytes => mapping(uint64 => bytes32))",
        "numberOfBytes": "32",
        "value": "t_mapping(t_uint64,t_bytes32)"
      },
      "t_mapping(t_uint16,t_uint256)": {
        "encoding": "mapping",
        "key": "t_uint16",
        "label": "mapping(uint16 => uint256)",
        "numberOfBytes": "32",
        "value": "t_uint256"
      },
      "t_mapping(t_uint256,t_bytes_storage)": {
        "encoding": "mapping",
        "key": "t_uint256",
        "label": "mapping(uint256 => bytes)",
        "numberOfBytes": "32",
        "value": "t_bytes_storage"
      },
      "t_mapping(t_uint256,t_mapping(t_bytes_memory_ptr,t_mapping(t_uint64,t_bytes32)))": {
        "encoding": "mapping",
        "key": "t_uint256",
        "label": "mapping(uint256 => mapping(bytes => mapping(uint64 => bytes32)))",
        "numberOfBytes": "32",
        "value": "t_mapping(t_bytes_memory_ptr,t_mapping(t_uint64,t_bytes32))"
      },
      "t_mapping(t_uint256,t_mapping(t_uint16,t_uint256))": {
        "encoding": "mapping",
        "key": "t_uint256",
        "label": "mapping(uint256 => mapping(uint16 => uint256))",
        "numberOfBytes": "32",
        "value": "t_mapping(t_uint16,t_uint256)"
      },
      "t_mapping(t_uint64,t_bytes32)": {
        "encoding": "mapping",
        "key": "t_uint64",
        "label": "mapping(uint64 => bytes32)",
        "numberOfBytes": "32",
        "value": "t_bytes32"
      },
      "t_uint16": {
        "encoding": "inplace",
        "label": "uint16",
        "numberOfBytes": "2"
      },
      "t_uint256": {
        "encoding": "inplace",
        "label": "uint256",
        "numberOfBytes": "32"
      },
      "t_uint64": {
        "encoding": "inplace",
        "label": "uint64",
        "numberOfBytes": "8"
      }
    }
  }
}